:020000040800F2
:1000000000A00020B1F40008ADF40008ADF4000831
:10001000ADF40008ADF40008ADF4000800000000E5
:10002000000000000000000000000000ADF4000827
:10003000ADF400080000000041E3000843E30008BD
:10004000ADF40008ADF40008ADF40008ADF400080C
:10005000ADF40008ADF40008ADF40008ADF40008FC
:10006000ADF40008ADF40008ADF40008ADF40008EC
:10007000ADF40008ADF40008ADF40008ADF40008DC
:10008000E9AE0008ADF40008ADF40008ADF40008D6
:10009000CD250008ADF40008ADF40008ADF400086B
:1000A000ADF40008ADF40008ADF40008ADF40008AC
:1000B000ADF40008ADF40008ADF40008ADF400089C
:1000C000ADF40008ADF40008ADF40008ADF400088C
:1000D000ADF40008ADF40008ADF40008ADF400087C
:1000E000ADF40008ADF40008ADF40008ADF400086C
:1000F000ADF40008ADF40008ADF40008ADF400085C
:10010000000000000000000000000000ADF4000846
:10011000ADF40008ADF40008ADF40008ADF400083B
:10012000ADF40008ADF40008ADF40008ADF400082B
:10013000ADF40008ADF4000800000000000000006D
:10014000ADF40008ADF40008ADF4000800000000B4
:10015000000000000000000000000000000000009F
:100160000000000000000000ADF40008ADF400083D
:10017000ADF40008000000000000000000000000D6
:0801800000000000ADF40008CE
:10080000FFFFFFFFFFFFFFFFFFFFFFFFFFFFFFFFF8
:10081000FFFFFFFFFFFFFFFFFFFFFFFFFFFFFFFFE8
:10082000FFFFFFFFFFFFFFFFFFFFFFFFFFFFFFFFD8
:10083000FFFFFFFFFFFFFFFFFFFFFFFFFFFFFFFFC8
:1017F000FFFFFFFFFFFFFFFFFFFFFFFFFFFFFFAA4E
:1018000010B5054C237833B9044B13B10448AFF33A
:1018100000800123237010BD0002002000000000A2
:101820007035010808B5034B1BB103490348AFF3FA
:10183000008008BD0000000004020020703501088F
:1018400081F0004102E000BF83F0004330B54FEA71
:1018500041044FEA430594EA050F08BF90EA020FDE
:101860001FBF54EA000C55EA020C7FEA645C7FEA71
:10187000655C00F0E2804FEA5454D4EB5555B8BF94
:101880006D420CDD2C4480EA020281EA030382EA05
:10189000000083EA010180EA020281EA0303362D97
:1018A00088BF30BD11F0004F4FEA01314FF4801C6A
:1018B0004CEA113102D0404261EB410113F0004F7C
:1018C0004FEA03334CEA133302D0524263EB430333
:1018D00094EA050F00F0A780A4F10104D5F1200ED1
:1018E0000DDB02FA0EFC22FA05F2801841F100012C
:1018F00003FA0EF2801843FA05F359410EE0A5F100
:1019000020050EF1200E012A03FA0EFC28BF4CF030
:10191000020C43FA05F3C01851EBE37101F00045E6
:1019200007D54FF0000EDCF1000C7EEB00006EEBF3
:101930000101B1F5801F1BD3B1F5001F0CD349087D
:101940005FEA30004FEA3C0C04F101044FEA4452D4
:1019500012F5800F80F09A80BCF1004F08BF5FEA5B
:10196000500C50F1000041EB045141EA050130BD3B
:101970005FEA4C0C404141EB0101013C28BFB1F54D
:10198000801FE9D291F0000F04BF01460020B1FA98
:1019900081F308BF2033A3F10B03B3F120020CDA6B
:1019A0000C3208DD02F1140CC2F10C0201FA0CF049
:1019B00021FA02F10CE002F11402D8BFC2F1200CAE
:1019C00001FA02F120FA0CFCDCBF41EA0C01904064
:1019D000E41AA2BF01EB0451294330BD6FEA0404AD
:1019E0001F3C1CDA0C340EDC04F11404C4F1200298
:1019F00020FA04F001FA02F340EA030021FA04F3AA
:101A000045EA030130BDC4F10C04C4F1200220FA00
:101A100002F001FA04F340EA0300294630BD21FA3E
:101A200004F0294630BD94F0000F83F4801306BF04
:101A300081F480110134013D4EE77FEA645C18BFF8
:101A40007FEA655C29D094EA050F08BF90EA020F8F
:101A500005D054EA000C04BF1946104630BD91EA87
:101A6000030F1EBF0021002030BD5FEA545C05D18A
:101A70004000494128BF41F0004130BD14F58004C9
:101A80003CBF01F5801130BD01F0004545F0FE413D
:101A900041F470014FF0000030BD7FEA645C1ABF72
:101AA000194610467FEA655C1CBF0B46024650EAA9
:101AB000013406BF52EA033591EA030F41F40021D5
:101AC00030BD00BF90F0000F04BF0021704730B55B
:101AD0004FF4806404F132044FF000054FF0000130
:101AE00050E700BF90F0000F04BF0021704730B5F1
:101AF0004FF4806404F1320410F0004548BF4042C6
:101B00004FF000013EE700BF42004FEAE2014FEA1A
:101B100031014FEA02701FBF12F07F4393F07F4FF5
:101B200081F06051704732F07F4208BF704793F0F8
:101B30007F4F04BF41F40021704730B54FF460740B
:101B400001F0004521F000411CE700BF50EA01020E
:101B500008BF704730B54FF000050AE050EA0102B7
:101B600008BF704730B511F0004502D5404261EB27
:101B700041014FF4806404F132045FEA915C3FF468
:101B8000D8AE4FF003025FEADC0C18BF03325FEA05
:101B9000DC0C18BF033202EBDC02C2F1200300FAB6
:101BA00003FC20FA02F001FA03FE40EA0E0021FADB
:101BB00002F11444BDE600BF4A0011D212F5001232
:101BC00011D20DD56FF47873B3EB62520ED44FEA95
:101BD000C12343F0004343EA505323FA02F0704715
:101BE0004FF00000704750EA013002D14FF0FF3053
:101BF00070474FF0000070474FEA4102B2F1E043F6
:101C000024BFB3F5001CDCF1FE5C0DD901F0004CE3
:101C10004FEAC0024CEA5070B2F1004F40EB830033
:101C200008BF20F00100704711F0804F21D113F15F
:101C30003872BCBF01F00040704741F480114FEA98
:101C40005252C2F11802C2F1200C10FA0CF320FA21
:101C500002F018BF40F001004FEAC1234FEAD3233E
:101C600003FA0CFC40EA0C0023FA02F34FEA4303A8
:101C7000CCE77FEA625307D150EA01331EBF4FF031
:101C8000FE4040F44000704701F0004040F0FE404C
:101C900040F40000704700BF10F8012B11F8013B21
:101CA000012A28BF9A42F7D0D01A7047034613F88A
:101CB000012B002AFBD1181A0138704700000000E0
:101CC00001F0FF01102A2BDB10F0070F08D010F8ED
:101CD000013B013A8B422DD010F0070F42B3F6D1F1
:101CE000F0B441EA012141EA014122F007047FF00A
:101CF00000070023F0E80256083C85EA010586EA61
:101D0000010685FA47F5A3FA87F586FA47F6A5FA9C
:101D100087F68EB9EED1F0BC01F0FF0102F00702A8
:101D200032B110F8013B013A83EA010313B1F8D153
:101D30000020704701387047002D06BF3546033834
:101D4000073815F0010F07D1013015F4807F02BF6D
:101D5000013015F4C03F0130F0BC0138704700BFBE
:101D600070B54FF0FF0C4CF4E06C1CEA11541DBF31
:101D70001CEA135594EA0C0F95EA0C0F00F0DEF8FC
:101D80002C4481EA030621EA4C5123EA4C5350EAE1
:101D9000013518BF52EA033541F4801143F4801332
:101DA00038D0A0FB02CE4FF00005E1FB02E506F0C3
:101DB0000042E0FB03E54FF00006E1FB03569CF018
:101DC000000F18BF4EF0010EA4F1FF04B6F5007F1E
:101DD00064F5407404D25FEA4E0E6D4146EB060690
:101DE00042EAC62141EA55514FEAC52040EA5E5019
:101DF0004FEACE2EB4F1FD0C88BFBCF5E06F1ED8C3
:101E0000BEF1004F08BF5FEA500E50F1000041EBF9
:101E1000045170BD06F0004646EA010140EA0200A6
:101E200081EA0301B4EB5C04C2BFD4EB0C0541EAC8
:101E3000045170BD41F480114FF0000E013C00F3DD
:101E4000AB8014F1360FDEBF002001F0004170BD01
:101E5000C4F10004203C35DA0C341BDC04F114041A
:101E6000C4F1200500FA05F320FA04F001FA05F2A6
:101E700040EA020001F0004221F0004110EBD37073
:101E800021FA04F642EB06015EEA430E08BF20EA9F
:101E9000D37070BDC4F10C04C4F1200500FA04F342
:101EA00020FA05F001FA04F240EA020001F00041D4
:101EB00010EBD37041F100015EEA430E08BF20EA47
:101EC000D37070BDC4F1200500FA05F24EEA020E8F
:101ED00020FA04F301FA05F243EA020321FA04F0BE
:101EE00001F0004121FA04F220EA020000EBD37075
:101EF0005EEA430E08BF20EAD37070BD94F0000F75
:101F00000FD101F00046400041EB010111F4801FA8
:101F100008BF013CF7D041EA060195F0000F18BF59
:101F2000704703F00046520043EB030313F4801F95
:101F300008BF013DF7D043EA0603704794EA0C0F4F
:101F40000CEA135518BF95EA0C0F0CD050EA410665
:101F500018BF52EA4306D1D181EA030101F00041E2
:101F60004FF0000070BD50EA410606BF104619460A
:101F700052EA430619D094EA0C0F02D150EA013616
:101F800013D195EA0C0F05D152EA03361CBF104657
:101F900019460AD181EA030101F0004141F0FE41F6
:101FA00041F470014FF0000070BD41F0FE4141F47A
:101FB000780170BD70B54FF0FF0C4CF4E06C1CEA7A
:101FC00011541DBF1CEA135594EA0C0F95EA0C0F2F
:101FD00000F0A7F8A4EB050481EA030E52EA0335EA
:101FE0004FEA013100F088804FEA03334FF080550B
:101FF00045EA131343EA12634FEA022245EA111538
:1020000045EA10654FEA00260EF000419D4208BFE8
:10201000964244F1FD0404F5407402D25B084FEA95
:102020003202B61A65EB03055B084FEA32024FF441
:1020300080104FF4002CB6EB020E75EB030E22BF9E
:10204000B61A754640EA0C005B084FEA3202B6EB5E
:10205000020E75EB030E22BFB61A754640EA5C000D
:102060005B084FEA3202B6EB020E75EB030E22BF9D
:10207000B61A754640EA9C005B084FEA3202B6EB9E
:10208000020E75EB030E22BFB61A754640EADC005D
:1020900055EA060E18D04FEA051545EA16754FEABF
:1020A00006164FEAC30343EA52734FEAC2025FEADD
:1020B0001C1CC0D111F4801F0BD141EA00014FF06C
:1020C00000004FF0004CB6E711F4801F04BF01433D
:1020D0000020B4F1FD0C88BFBCF5E06F3FF6AFAE59
:1020E000B5EB030C04BFB6EB020C5FEA500C50F1E9
:1020F000000041EB045170BD0EF0004E4EEA11316C
:1021000014EB5C04C2BFD4EB0C0541EA045170BD72
:1021100041F480114FF0000E013C90E645EA060EB6
:102120008DE60CEA135594EA0C0F08BF95EA0C0FE4
:102130003FF43BAF94EA0C0F0AD150EA01347FF42C
:1021400034AF95EA0C0F7FF425AF104619462CE703
:1021500095EA0C0F06D152EA03353FF4FDAE104666
:10216000194622E750EA410618BF52EA43067FF4B7
:10217000C5AE50EA41047FF40DAF52EA43057FF447
:10218000EBAE12E74FF0FF3C06E000BF4FF0010C52
:1021900002E000BF4FF0010C4DF804CD4FEA410CB6
:1021A0007FEA6C5C4FEA430C18BF7FEA6C5C1BD083
:1021B00001B050EA410C0CBF52EA430C91EA030F04
:1021C00002BF90EA020F0020704710F1000F91EA61
:1021D000030F58BF994208BF90422CBFD8176FEA2F
:1021E000E37040F0010070474FEA410C7FEA6C5CFD
:1021F00002D150EA013C07D14FEA430C7FEA6C5C04
:10220000D6D152EA033CD3D05DF8040B704700BF2F
:102210008446104662468C461946634600E000BF7D
:1022200001B5FFF7B7FF002848BF10F1000F01BD4F
:102230004DF808EDFFF7F4FF0CBF012000205DF81A
:1022400008FB00BF4DF808EDFFF7EAFF34BF01209F
:1022500000205DF808FB00BF4DF808EDFFF7E0FF38
:1022600094BF012000205DF808FB00BF4DF808ED89
:10227000FFF7CEFF94BF012000205DF808FB00BFF0
:102280004DF808EDFFF7C4FF34BF012000205DF8D2
:1022900008FB00BF4FEA410C7FEA6C5C02D150EAB8
:1022A000013C0AD14FEA430C7FEA6C5C02D152EA4E
:1022B000033C02D14FF0000070474FF0010070471F
:1022C0004FEA410212F5001215D211D56FF478735E
:1022D000B3EB625212D94FEAC12343F0004343EA01
:1022E000505311F0004F23FA02F018BF40427047DC
:1022F0004FF00000704750EA013005D111F0004066
:1023000008BF6FF0004070474FF00000704700BFFB
:1023100030B54FF480339FB00B22CDE90523022462
:102320000022CDE90C430792102501224FF4E0135F
:1023300005A8CDE909250B920E930AF077FE00B1AE
:10234000FEE70F23CDE900344FF48063CDE903307D
:102350000290214668460BF0F9F800B1FEE7E2234F
:102360000F934FF48073129018930FA820231695A3
:1023700017930BF0D3F9044600B1FEE70BF098F980
:102380004FF47A73B0FBF3F009F0C4FD042009F0B8
:10239000D5FD224621464FF0FF3009F07DFD1FB0EC
:1023A00030BD000010B50A4A0A4C0623C4E90023D8
:1023B000204640F6FF73C4E902330AF0B9FA00B1CF
:1023C000FEE720460AF0FDFA00B1FEE710BD00BFAF
:1023D000003000402402002001480AF020BB00BF6A
:1023E0002402002008B508F09BFDFFF791FF0120B3
:1023F00005F0F2FEFFF7D6FF02F0CAFA1E4C1F4DA1
:10240000206001461E4805F043FF286006F058FD95
:1024100002F030FC05F0DCFF206805F013FE2168B7
:10242000174801F053F906F029FD2168144800F01F
:1024300029F803F035FA0221002003F0EBF82168B7
:102440000F4804F05DFF2A6821680D4803F004FB83
:1024500003F0EAF905F00EFE03F0BAFB06F01EFDEC
:1024600000F0F4FFFFF7B8FF05F080FD0028EFD083
:1024700005F032FFECE700BF1C0200202002002024
:1024800038020020334B30B51860334B1960334BA2
:102490005A6942F400325A615B69314A8DB003F4E3
:1024A00000330193019B2F4B1A602F4A1A632F4A66
:1024B0005A6391F800212AB1012A4FF0000219D085
:1024C000092100E02421C3E90112DA604FF48021E0
:1024D0004FF48012C3E90412224800220125C3E907
:1024E0000625C3E90822C3E90A2209F00AFA0446CC
:1024F00010B1FEE71221E6E7CDE90700CDE90200C1
:10250000CDE90400CDE90A50069002A915480995C5
:1025100009F094F91348214609F02EFB00B1FEE7BB
:10252000134B1870134B187008F014FD124B186001
:1025300008F010FD114B186008F00CFD104B1860EE
:1025400008F008FD0F4B186008F004FD0E4B1860F2
:102550000DB030BD7C1500202C150020001002406D
:102560000064004030150020F8140020D41400202E
:102570008119002082190020643D0020683D002060
:102580006C3D0020603D00202815002084B08DE8BF
:102590000F00064B1B6893F8D2300846012B14BF7E
:1025A000C8B2C0F3072004B0704700BF2C1500204C
:1025B000054B1B6893F8D230012B14BF40EA012071
:1025C00041EA0020704700BF2C150020014809F0A7
:1025D0008FBB00BF3015002000B5042389B0CDE9C2
:1025E0000203002306A8CDE904320CF0C5FF04481D
:1025F00001AB0121036309F01BFA09B05DF804FB8C
:1026000030150020F0B53D4D3D4C2A68236892F806
:10261000EC1093F89D0087B019B992F8EB20002ACE
:1026200066D008B104F008FD2368DFED360A93F8A0
:102630009E6093F89F2093ED0B0AB60046EA42068F
:1026400093F8A120164393F8A72046EA021693F8C0
:10265000A92046EA421693F8A02046EA821693F88B
:10266000A820C0B246EAC21646EAC0000022C6B29E
:1026700003A904A803920CF096F82368DFED210A61
:1026800093ED050A03A904A80CF08DF82368D3ED97
:10269000047AFCEEE77A03AACDED017A9DF80410E6
:1026A00004A80CF00FF823680A27D988B1FBF7F1CA
:1026B00003AA04A8C9B20CF005F8236803AA9989F3
:1026C000B1FBF7F104A8C9B20BF0FCFF03AA314635
:1026D00004A80BF0F7FF2B68482193F8D100FFF70F
:1026E00067FF9DF80C2004A9FFF776FF07B0F0BD47
:1026F000002899D093F8A80093E700BF2C1500207C
:102700007C1500200000C84270B5224CDFED220A83
:102710002368224D93ED070A86B0002603A904A87A
:10272000CDED010A03960CF048F82368DDED010AAF
:1027300093ED080A03A904A80CF03FF82B68462182
:1027400093F8D100FFF734FF9DF80C2004A9FFF7A0
:1027500043FF2368DDED010A93ED0E0A039603A9FA
:1027600004A80CF02AF82368DDED010A93ED0D0AA8
:1027700003A904A80CF021F82B68472193F8D10095
:10278000FFF716FF9DF80C2004A9FFF725FF06B000
:1027900070BD00BF7C1500200050C3472C150020E1
:1027A0002DE9F047B44CB54E23682DED028B84B073
:1027B00093ED070A9FEDB28A002501A902A80195B1
:1027C0000CF004F8236801A993ED0C0A02A80BF0A1
:1027D000FDFF3368262193F8D100FFF7E9FE9DF84D
:1027E000042002A9FFF7F8FE2368019593ED080A7B
:1027F00001A902A80BF0EAFF236801A993ED080ADA
:1028000002A80BF0E3FF3368272193F8D100FFF70C
:10281000CFFE9DF8042002A9FFF7DEFE2368019594
:1028200093ED080A01A902A80BF0D0FF236801A9C3
:1028300093ED070A02A80BF0C9FF3368282193F82B
:10284000D100FFF7B5FE9DF8042002A9FFF7C4FEF2
:1028500033681F78DB7817FB03F7FFB24FF00209EC
:10286000BD422168C0F0B18000238DF808701A467F
:102870001846B5319F4200F3EC80030C8DF8093007
:10288000030A8DF80A30130E8DF80C30130C8DF8F6
:102890000D30C2F307238DF80E308DF80F303368FA
:1028A0008DF80B00082293F8D10001922A21FFF73E
:1028B0007FFE0DEB0201FFF78FFE33689FED718AFB
:1028C00093F8F08093F8E43018FB03F85FFA88F887
:1028D00000274FF0020947452368C0F0D78093EDE9
:1028E000120ADFED680A002501A902A801950BF084
:1028F0005AFF2368DFED630A93ED260A01A902A8B7
:102900000BF051FF2368DFED5F0A93ED130A01A975
:1029100002A80BF048FF33682C2193F8D100FFF791
:1029200047FE9DF8042002A9FFF756FE2368DFED5D
:10293000540A93ED0E0A019501A902A80BF033FF8A
:102940002368DFED4F0A93ED0D0A01A902A80BF0F1
:102950002AFF2168019A91ED047A91F8A740C7EE09
:10296000087A02F110030DEB030004320192D2B297
:102970009FED457A67EE877AFCEEE77A17EE903A9C
:10298000D1ED207A00F8083CFDEEE77AFF2300F84D
:10299000073C17EE903A00F8063C91F8A13091F808
:1029A0009F109B0043EA44030B4300F8053C336847
:1029B0002D2193F8D100FFF7FBFD02A9FFF70CFED4
:1029C00004B0BDEC028BBDE8F08701EBC50305F157
:1029D000010A93ED2C0A8DF808505FFA8AFA01A9D2
:1029E000F0EE480A02A8CDF804908DF809700BF0BB
:1029F000DAFE57451ED9236805F1020803EBCA0326
:102A000093ED2C0A5FFA88F801A9F0EE480A02A8B3
:102A10000BF0C9FE47451AD9236803EBC8030335F9
:102A200093ED2C0A01A9F0EE480A02A85FFA85FA94
:102A30000BF0B9FE3368292193F8D100FFF7B8FDF8
:102A40009DF8042002A9FFF7C7FD554608E7C246D6
:102A5000F0E711F833C0A3F12005C3F1200E0CFA02
:102A600005F52CFA0EFE45EA0E050CFA03FC4CEABD
:102A7000020228430133FDE67C1500202C150020BE
:102A800000007A440000C84200007F4307F1CA02F8
:102A900003EBC20307F1010A93ED000A8DF80870F9
:102AA0005FFA8AFA01A9F0EE480A02A8CDF804906C
:102AB0008DF809800BF077FED0451FD923680AF105
:102AC000CA0A03EBCA03BD1C93ED000AEDB201A9CB
:102AD000F0EE480A02A80BF066FEA8451BD9236851
:102AE000CA3503EBC503033793ED000A01A9F0EEE5
:102AF000480A02A85FFA87FA0BF055FE33682B21CB
:102B000093F8D100FFF754FD9DF8042002A9FFF7C8
:102B100063FD5746DFE6AA46F0E700BF2DE9F04324
:102B20002DED028BAD4EAE4F91B033783A789A428C
:102B300004D111B0BDEC028BBDE8F0835A1CA94C46
:102B40003270242202FB03440FCC07AD0FC50FCC1B
:102B50000FC523682B60099B042B0DF11C0C34D18D
:102B60000BAD0FCD6C460FC42B682360DFF89C8241
:102B70009CE80F00FFF70AFDD8F80030089D93F895
:102B8000D220C4B2012A14BFC5F30725EDB2FF2C31
:102B900004D093F8D130A34240F092806B1F0C2BED
:102BA00000F28E80DFE803F0071723648C8C8C8C96
:102BB0008C8C8C8C7C000B9A9DF83030013A0DF196
:102BC0003101894818440CF0D7FC3378FF2B04BF3F
:102BD00000233370A9E7BDF830305BBA9BB2B3F580
:102BE000806FF2D20B9A0DF13201023AE9E77F4B86
:102BF0009DF830201A709DF831307D4D9DF83220BF
:102C00007C4C003B18BF01232B707B4B04211960C7
:102C10009DF8331041EA0221B1F5806F2160D4D8CC
:102C2000DFF8EC919DF83420DFF8E88189F8002086
:102C300006221A606C489DF8353088F800300BF099
:102C400069FE99F8002098F8003043EA0223984280
:102C5000BBD12B7823B12168634800F04BFDB4E76A
:102C6000664800F041FD21685F4800F0D1FDACE707
:102C70005E4B9DF83020DFF880911A700223C9F86E
:102C800000309DF83130002B594B14BF0122002237
:102C90001A7031D00B990DF13200023900F02AFD83
:102CA000D8F80030122193F8D1008DF818000123D4
:102CB0008DF819300222FFF77BFC06A9FFF78CFC88
:102CC000102D25D8082D80D9093D072D3FF67DAF61
:102CD00001A353F825F000BF5D2D0008CB2B0008A1
:102CE000CB2B0008CB2B0008CB2B0008192E00089B
:102CF000772E00088F2E0008404800F0F5FCD9F828
:102D000000000B990CAB091A184400F081FDC7E7CD
:102D10001B2D7FF45AAF3A4A002318018158A14273
:102D200040F0028134491450002315180B6008F05C
:102D300011F9314968600CA80BF09BFD2E49E86041
:102D40000CA80BF082FD07EE900AF8EEE77AF2EE9F
:102D5000046A87EEA67A85ED027A36E7294A0023CF
:102D6000142000FB03F18958A14230D122490020F0
:102D7000086014204343D518D45008F0EBF81E49DE
:102D800068600CA80BF075FD07EE900AF8EEE77A84
:102D90001949C5ED027A0CA80BF057FD07EE900A11
:102DA000F8EEE77AF2EE046A87EEA67A12490CA8EA
:102DB00085ED037A0BF049FD07EE900ADFED126A0C
:102DC000F8EEE77A87EEA67A85ED047AFDE6013122
:102DD000CCD001330A2BC4D1F7E600BF8119002003
:102DE00082190020841900208015002080190020FD
:102DF00016150020703D00201C150020A53000088D
:102E00006C400020743D002000007A442C15002006
:102E10001715002018150020474A00231801815873
:102E2000A14222D145499FED468A00230B601450F0
:102E3000151808F08FF8414968600CA80BF019FDCF
:102E400007EE900AF8EEE77A3C4987EE887A0CA8FC
:102E500085ED027A0BF00DFD07EE900AF8EEE77AA9
:102E600087EE887A85ED037AAFE60131DAD0013357
:102E70000A2BD3D1A9E6334A002318018158A14275
:102E8000D0D00131CED001330A2BF6D19DE62E4AA7
:102E90000023182000FB03F18958A1423ED12749A5
:102EA0000020086018204343D518D45008F052F889
:102EB000224968600CA80BF0C8FC07EE900AF8EEF7
:102EC000E77AB2EE048A87EE887A1C490CA885ED71
:102ED000027A0BF0BAFC07EE900AF8EEE77A17498F
:102EE00087EE887A0CA885ED037A0BF0AEFC07EE2E
:102EF000900AF8EEE77A114987EE887A0CA885EDFA
:102F0000047A0BF0A2FC07EE900ADFED106AF8EEEF
:102F1000E77A87EEA67A85ED057A56E60131BED0CE
:102F200001330A2BB6D150E601313FF4FBAE013339
:102F30000A2B7FF4F2AE48E63C3E00201C15002030
:102F400000401C46DC3E00207C3F00200000484240
:102F500000B589B00023019006A8CDE9043203939F
:102F60000CF00AFB044801AB0121036308F060FD8B
:102F700009B05DF804FB00BF30150020062A2DE9DA
:102F8000F347074688461446994639D8444B8DF88E
:102F900001901B680DF1020093F8D1308DF80030DC
:102FA0000CF0EAFA08213846FFF702FBA21CD2B265
:102FB0006946FFF711FB02B0BDE8F08740F203134A
:102FC0009D4220D1A5423DD22B0AEEB208EB05016D
:102FD0000635A5428DF800308DF8016057D80B6892
:102FE000CDF802308B88ADF806300626062138462B
:102FF000B21CFFF7DDFAD2B26946FFF7EDFAE1E75E
:1030000000255FFA82FA2B460735DEB2AC428DF816
:10301000006003EB080131D353F80830CDF80130DC
:103020008B88ADF805308B798DF8073007260521A0
:103030003846721CFFF7BCFAD2B26946FFF7CCFAE9
:10304000AC42BBD8164B8DF801901B688DF803A0DD
:1030500093F8D1308DF800302146230A40468DF890
:1030600002300BF057FC0721030A8DF805003846A3
:103070008DF804300622FFF79BFA99E7AAEB0606C3
:10308000F6B232460DF101000CF076FACFE7AAEB6A
:103090000606F6B232460DF102000CF06DFAA5E715
:1030A0002C1500200A460146024801230078FFF74C
:1030B00065BF00BF8019002084B038B5089D04ACFE
:1030C00084E80F0045B39DF82440E10709D507F0D7
:1030D00041FF134B1860134B1B68C4F3400283F885
:1030E000A420620741BF0F4B1B6844F3C00483F860
:1030F000AE40012D10D09DF82530DB060CD50A4AD4
:10310000084B12681B6892F8E92083F8A620BDE8F6
:10311000384004B003F0AABFBDE8384004B070479F
:10312000603D00207C1500202C15002084B008B5DF
:103130000DF1080C8CE80F0040F20A7398420BD195
:1031400007F008FF084B9DF81C201860074B1A7009
:10315000BDE8084004B0704740F28A439842F7D176
:103160009DF82120024BF2E7701500202015002069
:1031700021150020F0B5446BA36887B004F1100559
:103180007BB90FCD6E460FC62B68336094E80F00F5
:10319000FFF7CCFF1948002107B0BDE8F04008F068
:1031A000EBBC626840F623239A420FCD6E460FC6F1
:1031B0002B68336094E80F0002D1FFF77DFFE9E749
:1031C000FFF7E4F90E4B1B6893F8D130C0B283428D
:1031D000E0D10C4F0C4D3B7824225E1C02FB0355C2
:1031E0000FCC0FC50FCC0FC5F6B223682B60FF2E96
:1031F00008BF00233E7008BF3B70CBE730150020AE
:103200002C150020821900208419002008B50D4BD0
:103210005B6B5A680C4B19688A4204D01A6007F03D
:1032200099FE0A4B186009484FF47A7101F044FD89
:1032300038B1074B1968074B1868BDE80840FFF71D
:1032400021B908BD30150020781500207415002024
:103250002C1500207C15002008B507F07BFE054BDF
:103260001B68C01AB0F5FA6F034B2CBF0020012079
:10327000187008BD701500202215002007B5002326
:1032800001AA6846052101930BF01CFA9DF8042061
:10329000694640F20170FFF75BFE03B05DF804FB86
:1032A00013B5002401AA6846012101940BF00AFA23
:1032B00001AA68460A210BF005FA9DF80420694628
:1032C0002046FFF745FE02B010BD000010B5F3EE3A
:1032D000007A2DED028B20EE270A84B0BCEEC00AE6
:1032E0000023019310EE103A044699B201AA02A8F5
:1032F000B0EE608A0BF037FA01AA214602A80BF063
:10330000E1F9DFED0B0A28EE208A01AAFCEEC87A6B
:1033100002A817EE901A0BF031FA9DF8042002A9CA
:1033200040F20A40FFF714FE04B0BDEC028B10BD62
:1033300000008044F8B53B484FF4FA7101F0BCFC42
:10334000D8B1FFF789FF384B1B78002B66D0374C7C
:10335000FFF794FF2378052B0AD1354F354D3B7885
:10336000354C364E032B57D8DFE803F008222B34B8
:10337000FFF796FF2378052BEFD0F8BD2B6893F865
:10338000AB3093B1DFED2E0A0020B0EE600AFFF7FC
:103390009DFF237832683B702B6892F8E92083F810
:1033A000A620BDE8F84003F061BE01232370F0E7DA
:1033B000DFED230A0020B0EE600AFFF787FF02234B
:1033C000F4E7DFED1F0A0120B0EE600AFFF77EFF91
:1033D0000323EBE73368DFED1B0A1A78D3ED056AA8
:1033E0002B68DB8807EE903A07EE102AF8EEE77AB2
:1033F000B3EE0E0A67EE807AB8EEC77A9FED120A36
:10340000E7EE260A012087EE800AFFF75FFF2B68B0
:1034100093F8AB30002BBCD00023C7E7044A1370ED
:10342000ABE700BF24150020221500202015002046
:10343000141500207C150020151500202C150020E7
:10344000000000009A99193F00007A4470B52DEDF4
:10345000048B854A8AB010685168844A06AB03C35E
:103460001068516803C3824890F83930222B00F06D
:10347000E780002108F080FB7E4B1B6893F8D32087
:103480009AB193F8D430012B40F0DF807A48C821FC
:1034900001F012FC08B1FFF7B5F878484FF4FA7163
:1034A00001F00AFC08B1FFF72FF97348C82101F0B9
:1034B00003FC002800F0AF80002403AA40F2EB11C7
:1034C00004A803940BF044F903AA4FF4967104A8DE
:1034D0000BF03EF903AA4FF4967104A80BF038F9EB
:1034E000674E03AA4FF4D27104A80BF031F99DF88E
:1034F0000C2004A940F25130FFF72AFD33680394F1
:10350000D3ED047AFCEEE77A03AACDED017ABDF89B
:103510000450BDF9041004A80BF01AF905EB850559
:1035200003AA642104A80BF013F9690003AA09B2E5
:1035300004A80BF00DF9214603AA04A80BF008F922
:103540009DF80C2004A940F25530FFF701FD3368C7
:103550009FED4C7AD3ED077AD3ED088A93ED228A5A
:10356000039467EE877A03AAFCEEE77A04A817EEC5
:10357000903AB2EE049A19B20BF0EAF828EE897A82
:1035800003AABCEEC77A04A817EE103A19B20BF0E2
:10359000DFF868EE097A03AAFCEEE77A04A817EED2
:1035A000903A19B20BF0D4F8214603AA04A80BF004
:1035B000CFF89DF80C2004A940F25630FFF7C8FC64
:1035C000214603AA04A803940BF0C2F8214603AADB
:1035D00004A80BF0BDF8214603AA04A80BF0B8F824
:1035E000214603AA04A80BF0B3F808249DF80C2088
:1035F00004A940F25A30FFF7ABFC224606A94FF46B
:103600005C700394FFF7A4FC224608A940F25E30E8
:103610000394FFF79DFC1C4841F2883101F04CFBFC
:1036200020B1174B1B68002283F8A420FFF776FA1D
:10363000FFF7ECFDFFF77EFE0AB0BDEC048B70BD1A
:1036400007F088FC114B186016E7032B7FF42DAFB1
:103650000F484FF47A7101F02FFB00283FF425AF9B
:10366000FFF79EF821E700BF943501089D3501085A
:10367000301500202C150020643D0020683D0020FE
:103680007C1500200000C842603D00202815002065
:103690006C3D00200928DDBF024B182202FB0030E0
:1036A000002070477C3F0020BFF34F8F0549064B39
:1036B000CA6802F4E0621343CB60BFF34F8F00BFD0
:1036C000FDE700BF00ED00E00400FA05034B1960C0
:1036D000034B1860034B00221A70704748420020C9
:1036E0004C4200200C410020014B1860704700BF85
:1036F00050460020024B1B6803B11847704700BFBB
:10370000504600200FB413B50C4C04AB20461521D5
:1037100053F8042B00F8011BFE2101930CF05CFE12
:10372000002806DDFE28A8BFFE20411C2046FFF72A
:10373000E1FF02B0BDE8104004B0704758460020D9
:10374000184B02781B6883F8D120427883F8002157
:10375000D0F802201A70D0F8062083F8E420D0F8C0
:103760000A20DA61D0F80E209A67D0F812205A6148
:10377000D0F816201A61D0F81A20DA60D0F81E208E
:103780009A60D0F82220C3F89820D0F82620C3F8F9
:103790009020D0F82A20C3F8C420D0F82E20C3F8F7
:1037A000C820704748420020184B1B6893F8D1206E
:1037B000027093F8002142701A78C0F8022093F842
:1037C000E420C0F80620DA69C0F80A209A6FC0F831
:1037D0000E205A69C0F812201A69C0F81620DA685B
:1037E000C0F81A209A68C0F81E20D3F89820C0F8B4
:1037F0002220D3F89020C0F82620D3F8C420D3F894
:10380000C830C0F82A20C0F82E3070474842002047
:103810002DE9F0412DED028B054682B00F460029BF
:103820004CD00446002314F8016B0093652E35D864
:103830005B2E1CD8032E2AD91D2E00F03687222E8F
:1038400000F03587142E2ED14354204604F0FEFD9F
:1038500029E0A6F19603072B25D8DFE813F02F0700
:103860003C017201AD01E101810481047900A6F1FE
:103870005C03092B17D8DFE813F043080708070893
:1038800029082A07F50716001600FC070308013E61
:10389000022E18D8DFE806F0343B4D0006F16A032B
:1038A000DBB2072BD5D94FF47A7101A801F004FAE5
:1038B00020B1BA4B1B780BB102F060F802B0BDEC3E
:1038C000028BBDE8F081B64CB64905230025637034
:1038D0000223A3702570E01C0CF0EDFCB24B03CB6F
:1038E000C4F81110C4F80D001868C4F815000123BD
:1038F0001D216576A576E37600912377204615E0B5
:10390000A64B01221A7007F025FB0190CBE7694610
:1039100020460AF0BEFF01F0CDFFA14A022111703E
:10392000B0FA80F35B09009153701046FFF7E2FE96
:10393000B9E7694620460AF0ACFF0099CA433A4409
:10394000214402F005F8964A032313700221E7E7A9
:10395000934C964DDFED960A012300939D2323702F
:103960002B68694693ED070A20460AF026FF2B686C
:10397000DFED8F0A93ED080A694620460AF01DFF25
:103980002B681869FEF7C0F841EC100B0FF036FBFE
:1039900051EC100BFEF710F96A46C1B220460AF04E
:1039A00091FE2B68DFED820A93ED0D0A69462046F1
:1039B0000AF003FF2B68DFED7E0A93ED0F0A6946DC
:1039C00020460AF0FAFE2B68DFED790A93ED0E0A25
:1039D000694620460AF0F1FE2B68DFED750A93ED8B
:1039E000100A694620460AF0E8FE2B68694693ED06
:1039F0000B0AF2EE040A20460AF0D5FE2B6869464F
:103A000093ED0A0AF2EE040A20460AF0CCFE2B6877
:103A1000694693ED0C0AF2EE040A20460AF0C3FE52
:103A20002B68694693ED200AF2EE040A20460AF05C
:103A3000BAFE2B68694693ED220AF2EE040A20468C
:103A40000AF0B1FE2B68694693ED210AF2EE040AF2
:103A500020460AF0A8FE2B68694693ED230AF2EE91
:103A6000040A20460AF09FFE2B68694693ED250A5A
:103A7000F2EE040A20460AF096FE2B68694693EDA2
:103A8000240AF2EE040A20460AF08DFE2B68F2EEBC
:103A9000040A93ED260A694620460AF084FE2B6844
:103AA0006A46197E20460AF00DFE2B686A4693F896
:103AB000A61020460AF006FE2B686A46597E20466C
:103AC0000AF000FE3B4B1A68009B92F8D120E254AA
:103AD000591C009112E7324C364D344E9FED348A1A
:103AE00001230093972323702B681978DB7811FB4F
:103AF00003F16A46C9B220460AF0E4FD00272A68AD
:103B00001178D378F8B211FB03F1884207DB009BF0
:103B1000591C009192F8D120E254214806E73368FD
:103B200003EBC00393ED2C0A93F8B5306946F0EE31
:103B3000480A0BB1B1EE400A20460AF034FE0137C4
:103B4000DDE7174C1B4E194F012300939823237078
:103B5000336893F8F01093F8E43011FB03F16A46F0
:103B6000C9B220460AF0AEFD0025326892F8F01086
:103B700092F8E400EBB211FB00F18B4205F1010574
:103B8000C5DA3A68CA3302EBC30393ED000A69460B
:103B9000F2EE040A20460AF006FEE6E70C41002099
:103BA00050420020A6350108ACF7FF1F4C42002010
:103BB00000007A4448420020164C174E174F01234C
:103BC000009399232370336893F8E51093F8E63057
:103BD00011FB03F16A46C9B220460AF073FD0025C5
:103BE000326892F8E51092F8E600EBB211FB00F1B2
:103BF0008B4205F101058ADA3A6803F5A17302EBFD
:103C0000C30393ED000A6946F2EE040A20460AF067
:103C1000CAFDE5E750420020484200204C42002007
:103C2000DB4D694620462E680AF00AFE6946307070
:103C300020462E680AF004FE6946707020462E6801
:103C40000AF0FEFD6946F07020462E680AF03CFE40
:103C50006946204686ED010A2E680AF035FE69465F
:103C6000204686ED020A2E680AF02EFE694620469E
:103C700086ED030A2E680AF027FE6946204686ED87
:103C8000040A2E680AF020FE6946204686ED050AE1
:103C90002E680AF019FE6946204686ED060A2E684F
:103CA0000AF012FE694686ED070A20460AF0C8FDB2
:103CB0002E68003818BF012086F82000694620468B
:103CC0000AF002FE6946204686ED090A2E680AF0CF
:103CD000FBFD6946204686ED0A0A2E680AF0F4FDCF
:103CE0006946204686ED0B0A2E680AF0EDFD69460E
:103CF00086ED0C0A20462E680AF0A2FD694686F879
:103D0000340020462E680AF09BFD694686F835008F
:103D100020462E680AF094FD694686F83600204653
:103D20002E680AF08DFD694686F8370020462E6819
:103D30000AF0CAFD6946204686ED0E0A2E680AF092
:103D4000C3FD694686ED0F0A20462E680AF07DFD08
:103D50006946A6F8400020462E680AF0B5FD69467F
:103D6000204686ED110A2E680AF0AEFD694620460F
:103D700086ED120A2E680AF0A7FD6946204686EDF8
:103D8000130A2E680AF0A0FD694686ED140A204643
:103D90002E680AF055FD694686F8540020462E68C4
:103DA0000AF04EFD694686F8550020462E680AF056
:103DB00070FD6946B06520462E680AF041FD6946EF
:103DC00086F85C0020462E680AF063FD694630667E
:103DD00020462E680AF078FD694686ED190A2046CD
:103DE0002E680AF056FD6946B06620462E680AF035
:103DF0006BFD694686ED1B0A20462E680AF049FDD8
:103E00006946306720462E680AF043FD69467067B0
:103E100020462E680AF058FD6946204686ED1E0AA7
:103E20002E680AF051FD694686ED1F0A20462E686D
:103E30000AF02FFD6946C6F8800020462E680AF079
:103E400043FD694686ED210A20462E680AF021FDD1
:103E50006946C6F8880020462E680AF035FD694696
:103E6000204686ED230A2E680AF02EFD694620467C
:103E700086ED240A2E680AF027FD6946204686ED65
:103E8000250A2E680AF020FD6946204686ED260A9E
:103E90002E680AF019FD6946204686ED270A2E682D
:103EA0000AF012FD6946204686ED280A2E680AF0BF
:103EB0000BFD6946204686ED290A2E680AF004FDAE
:103EC0006946204686ED2A0A2E680AF0FDFC6946FE
:103ED00086ED2B0A20462E680AF0DBFC6946C6F800
:103EE000B00020462E680AF0D4FC6946C6F8B4003B
:103EF00020462E680AF0CDFC6946C6F8B800204678
:103F00002E680AF0C6FC6946C6F8BC0020462E683A
:103F10000AF096FC694686F8C00020462E680AF032
:103F20008FFC694686F8C10020462E680AF088FC9E
:103F3000694686F8C20020462E680AF0C5FC69462C
:103F400086ED310A20462E680AF0A3FC6946C6F8C1
:103F5000C80020462E680AF09CFC6946C6F8CC00D2
:103F600020462E680AF06CFC694686F8D000204690
:103F70002E680AF065FC694686F8D10020462E6856
:103F80000AF05EFC694686F8D200204602E000BFD7
:103F9000484200202E680AF053FC694686F800016A
:103FA00020462E680AF04CFC694686F8D30020466D
:103FB0002E680AF045FC694686F8D40020462E6833
:103FC0000AF067FC6946C6F8D80020462E680AF059
:103FD00060FC6946C6F8DC0020462E680AF059FCF1
:103FE0006946C6F8E00020462E680AF029FC6946BA
:103FF00086F8E40020462E680AF022FC694686F81E
:10400000E50020462E680AF01BFC694686F8E600AB
:1040100020462E680AF014FC694686F8E700204620
:104020002E680AF00DFC694686F8E80020462E68E6
:104030000AF006FC694686F8E90020462E680AF078
:10404000FFFB694686F8EA0020462E680AF0F8FB76
:10405000694686F8EB0020462E680AF0F1FB6946B7
:1040600086F8ED0020462E680AF0EAFB694686F8DD
:10407000EE0020462E680AF00CFC6946C6F80C01DA
:1040800020462E680AF005FC6946C6F82001204645
:104090002E680AF0E4FB6946A6F8300120462E6837
:1040A0000AF0F7FB6946C6F8100120462E680AF0B0
:1040B000F0FB6946C6F8240120462E680AF0CFFBC3
:1040C0006946A6F8320120462E680AF0E2FB6946EE
:1040D000C6F8140120462E680AF0DBFB6946C6F8D4
:1040E000280120462E680AF0BAFB6946A6F834017A
:1040F00020462E680AF0A4FB694686F8EF002046A9
:104100002E680AF09DFB694686F8F00020462E686E
:104110000AF096FB694686F8F80020462E680AF0F9
:104120008FFB694686F8010120462E680AF0B1FB34
:104130006946C6F8FC0020462E680AF081FB86F826
:10414000360106489A23012103700091FFF7D2FA45
:10415000286800F033FCFFF7A6BB00BF50420020E8
:104160009C2ED84D40F09D82D74C204600F086FC16
:104170002C60D64C012300932B68267019786A4670
:1041800020460AF09FFA2B686A46597820460AF0C2
:1041900099FA2B686A46D97820460AF093FA2B6878
:1041A000694693ED010A20460AF010FB2B68694628
:1041B00093ED020A20460AF009FB2B68694693ED4D
:1041C000030A20460AF002FB2B68694693ED040AB5
:1041D00020460AF0FBFA2B68694693ED050A204653
:1041E0000AF0F4FA2B68694693ED060A20460AF0B5
:1041F000EDFA2B68694693ED070A20460AF0E6FAC5
:104200002B686A4693F8201020460AF05BFA2B6868
:10421000694693ED090A20460AF0D8FA2B686946E8
:1042200093ED0A0A20460AF0D1FA2B68694693ED0D
:104230000B0A20460AF0CAFA2B68694693ED0C0A6D
:1042400020460AF0C3FA2B686A4693F834102046D9
:104250000AF038FA2B686A4693F8351020460AF0BF
:1042600031FA2B686A4693F8361020460AF02AFA8B
:104270002B686A4693F8371020460AF023FA2B6819
:10428000694693ED0E0A20460AF0A0FA2B686946AB
:1042900093ED0F0A20460AF099FA2B686A46B3F9A3
:1042A000401020460AF014FA2B68694693ED110A73
:1042B00020460AF08BFA2B68694693ED120A2046D5
:1042C0000AF084FA2B68694693ED130A20460AF037
:1042D0007DFA2B68694693ED140A20460AF076FAB7
:1042E0002B686A4693F8541020460AF0EBF92B68C5
:1042F0006A4693F8551020460AF0E4F92B686A469E
:10430000996D20460AF00FFA2B686A4693F85C1004
:1043100020460AF0D7F92B686A46196E20460AF043
:1043200002FA2B68694693ED190A20460AF04EFA04
:104330002B686A46996E20460AF0F5F92B686946A3
:1043400093ED1B0A20460AF041FA2B686A46196F62
:1043500020460AF0E8F92B686A46596F20460AF0B1
:10436000E2F92B68694693ED1E0A20460AF02EFA00
:104370002B68694693ED1F0A20460AF027FA2B683E
:104380006A46D3F8801020460AF0CDF92B686946BA
:1043900093ED210A20460AF019FA2B686A46D3F8F1
:1043A000881020460AF0BFF92B68694693ED230A6E
:1043B00020460AF00BFA2B68694693ED240A204642
:1043C0000AF004FA2B68694693ED250A20460AF0A4
:1043D000FDF92B68694693ED260A20460AF0F6F9A6
:1043E0002B68694693ED270A20460AF0EFF92B68FF
:1043F000694693ED280A20460AF0E8F92B686946D9
:1044000093ED290A20460AF0E1F92B68694693EDFD
:104410002A0A20460AF0DAF92B68694693ED2B0A3E
:1044200020460AF0D3F92B686A46D3F8B01020462C
:104430000AF079F92B686A46D3F8B41020460AF0DE
:1044400072F92B686A46D3F8B81020460AF06BF967
:104450002B686A46D3F8BC1020460AF064F92B6832
:104460006A4693F8C01020460AF02CF92B686A4679
:1044700093F8C11020460AF025F92B686A4693F894
:10448000C21020460AF01EF92B68694693ED310AE6
:1044900020460AF09BF92B686A46D3F8C8102046DC
:1044A0000AF041F92B686A46D3F8CC1020460AF08E
:1044B0003AF92B686A4693F8D01020460AF002F9C0
:1044C0002B6805E054460020104100205042002097
:1044D0006A4693F8D11020460AF0F4F82B686A4631
:1044E00093F8D21020460AF0EDF82B686A4693F84C
:1044F000001120460AF0E6F82B686A4693F8D310BC
:1045000020460AF0DFF82B686A4693F8D41020465C
:104510000AF0D8F82B686A46D3F8D81020460AF07B
:1045200002F92B686A46D3F8DC1020460AF0FBF843
:104530002B686A46D3F8E01020460AF0F4F82B689E
:104540006A4693F8E41020460AF0BCF82B686A46E5
:1045500093F8E51020460AF0B5F82B686A4693F800
:10456000E61020460AF0AEF82B686A4693F8E7108A
:1045700020460AF0A7F82B686A4693F8E810204610
:104580000AF0A0F82B686A4693F8E91020460AF072
:1045900099F82B686A4693F8EA1020460AF092F8D8
:1045A0002B686A4693F8EB1020460AF08BF82B68CC
:1045B0006A4693F8ED1020460AF084F82B686A46A4
:1045C00093F8EE1020460AF07DF82B686A46D3F87F
:1045D0000C1120460AF0A7F82B686A46D3F8201180
:1045E00020460AF0A0F82B686A46B3F8301120463E
:1045F0000AF079F82B686A46D3F8101120460AF0C1
:1046000092F82B686A46D3F8241120460AF08BF8FA
:104610002B686A46B3F8321120460AF064F82B681A
:104620006A46D3F8141120460AF07DF82B686A46D2
:10463000D3F8281120460AF076F82B686A46B3F8BA
:10464000341120460AF04FF82B686A4693F8EF10B1
:1046500020460AF037F82B686A4693F8F010204697
:104660000AF030F82B686A4693F8F81020460AF0F2
:1046700029F82B686A4693F8011120460AF022F8BF
:104680002B686A46D3F8FC1020460AF04CF82B68D9
:104690006A4693F8361120460AF014F80099FFF79D
:1046A0002DB9B24B1B682B6063E5FEF7FDFF8A1E38
:1046B000811C4078FEF762FCFFF7F5B800F072F954
:1046C000AB480121962300910370FFF72FB9A84D45
:1046D000A84CDFEDA90ADFF894829FEDA88A012398
:1046E000009360232B702368694693ED070A2846E0
:1046F0000AF063F82368DFEDA00A93ED0C0A69461F
:1047000028460AF05AF82368DFED9B0A93ED080A61
:10471000694628460AF051F82368DFED970A93EDC1
:10472000080A694628460AF048F82368DFED930A2C
:1047300093ED080A694628460AF03FF82368DFED42
:104740008F0A93ED070A694628460AF036F8D8F82A
:1047500000301E78DB7816FB03F6009BF6B25A1C7D
:10476000EE5400920027FAB29642236859D8009876
:1047700000212F180A46B53396425EDC064401B18B
:104780000096D8F800309FED7E8A93F8F06093F899
:10479000E430774F16FB03F6009BF6B25A1CEE543A
:1047A00000920025EAB2964223684DD89FED748AA4
:1047B00093ED120A6E486946F0EE480A09F0F3FFDD
:1047C00023686B4893ED260A6946F0EE480A09F023
:1047D000EAFF2368664893ED130A6946F0EE480A3B
:1047E00009F0E1FF2368624893ED200A6946F0EE84
:1047F000480A09F0D8FF2368DFED600A93ED040A48
:104800005B4880EE080A694609F0CDFF69465848C2
:10481000DFED5A0A9FED5B0A09F0C5FF0099FFF72B
:104820007CB903EBC70393ED2C0A6946F0EE480A06
:10483000284609F0B8FF013795E713F8321007F85A
:10484000011B0132012197E705F1CA0203EBC20304
:1048500093ED000A6946F0EE480A384609F0A3FFD6
:1048600001359FE7434B1B68012283F8A120FFF726
:104870001AB83E4B1B68012283F82020FFF713B8BB
:1048800003F0D6FBFFF70FB80AF0A8FC6B780746D9
:10489000002B7FF408A85D2E15D1FEF785FF344C60
:1048A000022300930023637039462670A01C0AF08F
:1048B000CFFC009901442046FEF71CFF38460AF061
:1048C000B3FCFEF7F0BF0AF0B1FDE8E70AF086FCA2
:1048D0006B78044683B90146A81C0AF02FFD58B135
:1048E0002046FEF72DFF22485F230121037000912F
:1048F000FEF700FF2046E2E72348FEF703FFF9E753
:10490000467801230093002E7EF4CDAF6946204601
:1049100009F0AFFF69460546204609F0AAFF2B18AB
:10492000B3F5FE6F0746BEF6BEAF40F2F6339D42CA
:104930003EF7B9AF0E4C5C232370667002236A46C3
:1049400040F2EF712046009309F0D8FE6A463946DE
:10495000204609F0D3FE009E0C492A463944A0198E
:104960000AF00AFE71190091FEF7C8BF4842002004
:10497000504200204C4200200024744900007A4438
:104980000000C84200000000B035010814710108A1
:10499000024B03489C221A80704700BFEA4B00205C
:1049A000584700200148002104F0E8BA5847002089
:1049B0000148002104F008BB5847002090F85C3003
:1049C000122B28BF122380F85C3090F8F0300022C0
:1049D000122BC0F8F420D0F8C82028BF122330B51D
:1049E00080F8F0303AB141F288318A422CBFC0F8E9
:1049F000C820C0F8C810C278B3FBF2F502FB15332B
:104A000013F0FF0311D10478B4FBF5F2D1B205FB2A
:104A1000124212F0FF021BD1817080F8F110134690
:104A200099420CDC8378032B08D80C2303700123F4
:104A30008370A0F8F0300023C0F8F43030BDD0F817
:104A4000F420520042F00102C0F8F4200133E7E7FD
:104A50000131C9B28170B4FBF1F201FB1241C9B25C
:104A600080F8F1109942DDDDD0F8F420520042F0D8
:104A70000102C0F8F4200133F4E7000040F60C23F3
:104A80005B4903805B4B436041625B4B5B498360E6
:104A900081625B4B5B49C36041635B4B5B49036174
:104AA00081635B4B5B49436141645B4BC16440F292
:104AB0000121F0B58361594D594BDFF888E1A0F829
:104AC00054104FF47A6101220024564FC3614FF015
:104AD0007C564FF0050CC3638165002342F21071D0
:104AE0004566C0F870E0504DC27041F2707E80F8AB
:104AF0002020C762A0F840308464046580F85CC060
:104B0000C766C0F874E006630166856687674FF480
:104B1000FA67C0F88070454FC0F88C70444FC0F8F9
:104B20009070444FC0F89870C0F8A470424FC0F81D
:104B3000A87040F20157A0F8C07080F8C2C04FF0D2
:104B40007E57DFF804C1C0F8C4704EF66027C0E994
:104B500032C73A4FDFF8F4C0C0F89440C0F89C4028
:104B6000C0F8AC40C0F8D07041F288340327C0E9E7
:104B70002C4480F8D47040F6B8340627C0F8E4C05E
:104B8000DFF8CCE080F800210CF1FE0CC0E93773AF
:104B9000C0F8D820C0E94315C667C0F8A0E0C0F847
:104BA000B810C0F8BC40C0F8E8C0C0F81411C0E9A3
:104BB000481580F8F8204FF48062A0F8EE2040F20B
:104BC0000262A0F8F0201E4A80F8013180F8ED3032
:104BD000C0F8F43041F29A03C0E94C23C0F82851E0
:104BE000C0F8FC408770C0F88460C0F88840F0BD11
:104BF0008FC2F53C6666B04333331340CDCC4C3E98
:104C00006666864001010100CDCC2C4060E550BDB8
:104C100033338340CDCC44420AD7A33B0AD7A33CCD
:104C2000000060400AD7233CA086010000007A44BF
:104C300000009642000048420000A042020A000123
:104C40009A109A1040771B00804F12000300000159
:104C50000000A04000B5CFB06846FFF70FFF044B3F
:104C60000021197004F08AF94FB05DF804FB00BF11
:104C7000E84B0020054B10B51C7814B1FFF7EAFF94
:104C80000446FFF795FE204610BD00BFE84B00200C
:104C900008B509F0E7FC4FF0E023054A5A61054AE0
:104CA000F02182F8231000229A6107221A6108BDC0
:104CB0003F19010000ED00E038B504460D4606F04E
:104CC00049F92368C01AA84204D306F043F92060CA
:104CD000012038BD0020FCE738B504460D460948E0
:104CE0006321FFF7E9FF084B10B11A6801321A601F
:104CF0001A682368D31AAB4226BF22600120002025
:104D000038BD00BF944800209048002038B50546C3
:104D10000C4606F01FF92B68C01AA04234BF0020D1
:104D2000012038BD10B506F015F9124C4021206065
:104D3000802009F003FE0A212046FFF7BDFF00286E
:104D4000F9D03C21022004F079F904F0E5F904F0EF
:104D5000DBF9094B01221A70084B00241C7006F085
:104D6000F9F8074B186006F0F5F8064B1860064B8B
:104D70001C7010BDE4480020E04800209C48002042
:104D8000DC480020EC480020D848002010B50C4832
:104D900042F21071FFF790FF50B10A4C23782BB903
:104DA0003C21022004F04AF90123237004F0ACF9FD
:104DB00004F0C2F910B1034B00221A7010BD00BFFD
:104DC00098480020E0480020FDEEC07A642317EEEA
:104DD000902A92FBF3F307EE903A9FED077AF8EEF4
:104DE000E77A82B077EE877AFCEEE77ACDED017A4A
:104DF0009DF8040002B0704700004042FDEEC07A0A
:104E0000642217EE903A93FBF2F102FB113307EEA6
:104E1000903AF8EEE77A0A23FDEEE77A9FED0A7AF8
:104E200017EE902A92FBF3F307EE903AF8EEE77A4A
:104E300082B077EE877AFCEEE77ACDED017A9DF8C5
:104E4000040002B0704700BF00004042FDEEC07A8F
:104E50000A2217EE903A93FBF2F102FB113300EEB7
:104E6000103ADFED077AB8EEC00A82B030EE270ABA
:104E7000FCEEC07ACDED017A9DF8040002B07047D7
:104E800000004042F2EE047A20EE270A0A22FDEEEC
:104E9000C07A9FED0B7A17EE903A93FBF2F102FB8A
:104EA000113307EE903AF8EEE77A82B077EE877A20
:104EB000FCEEE77ACDED017A9DF8040002B0704770
:104EC00000004042DFED0E7A9FED0E7A20EE270AB9
:104ED0000A22FDEEC07A82B017EE903A93FBF2F10F
:104EE00002FB113307EE903AF8EEE77A77EE877A15
:104EF000FCEEE77ACDED017A9DF8040002B0704730
:104F00000000C84200004042DFED0E7A9FED0E7AAD
:104F100020EE270A0A22FDEEC07A82B017EE903A00
:104F200093FBF2F102FB113307EE903AF8EEE77AC9
:104F300077EE877AFCEEE77ACDED017A9DF80400F2
:104F400002B0704700007A440000404238B5B5EE28
:104F5000C00AF1EE10FA2DED028B0446B0EE408A45
:104F600002D52D2009F0CAFEB0EE480AFFF72CFF4B
:104F70003028054601D009F0C1FEB0EE480AFFF71F
:104F80003DFF302801D1302D01D009F0B7FEB0EE41
:104F9000480AFFF75BFF09F0B1FEE4B12E2009F0EB
:104FA000ADFEB0EE480AFFF76DFF09F0A7FE012C39
:104FB00011D0B0EE480AFFF785FF09F09FFE022CE2
:104FC00009D0B0EE480AFFF79FFFBDEC028BBDE8A9
:104FD000384009F093BEBDEC028B38BD84B02DE99A
:104FE000F74306460BAD012085E80E0005F0D0FD25
:104FF000A74BA84CA84FDFF8BC821870002840F0DF
:10500000E182012323703B78DFF8AC92042B04BFCC
:1050100000233B7099F80030B3421DD0002388F87C
:1050200000300FCD9D4C0FC40FCD0FC40FCD0FC45A
:1050300095E8030084E803000B2E17D8DFE816F08C
:105040002500280046003E01A801CE01F9013702E3
:105050004B025302B602BC029048382229460AF09D
:105060007BFA50B998F80030002BD7D189F800604E
:1050700003B0BDE8F04304B0704789484FF4FA61CB
:10508000FFF71AFE0028C9D1ECE704F045F8EDE778
:1050900004F042F84FF48061824804F045F80220A1
:1050A00009F024FE012009F017FE2E210A2009F044
:1050B00009FE562009F022FE352009F01FFE2E20A1
:1050C00009F01CFE322009F019FECFE704F024F8A5
:1050D0009DF85830DBB974484FF4806104F024F82F
:1050E000DDED0B6A9FED717AC6EE877A0123072109
:1050F0000093084632239FED6E7A67EE877AFCEEC6
:10510000E77A17EE902A12B209F0B7FCAEE7022058
:1051100009F0ECFD3C785CBB012009F0DDFD0721C6
:10512000084609F0CFFD532009F0E8FD4F2009F0B3
:10513000E5FD432009F0E2FD3A2009F0DFFD9DED99
:105140000B0A2046FFF702FF252009F0D7FD20219A
:10515000072009F0B7FD492009F0D0FD3A2009F0F9
:10516000CDFD02209DED0C0AFFF7F0FE4120AAE7DD
:10517000012C28D10721084609F0A4FD562009F08A
:10518000BDFD3A2009F0BAFD9DED0D0A2046FFF75E
:10519000DDFE562009F0B2FD2021072009F092FD26
:1051A000482009F0ABFD752009F0A8FD6D2009F03D
:1051B000A5FD3A2009F0A2FD20469DED150AFFF756
:1051C000C5FE25207FE7022C2ED10721084609F0D5
:1051D00079FD432009F092FD562009F08FFD48200B
:1051E00009F08CFD3A2009F089FD9DED130A03209A
:1051F000FFF7ACFE562009F081FD2021072009F0C1
:1052000061FD432009F07AFD562009F077FD4C201E
:1052100009F074FD3A2009F071FD9DED120A03209A
:10522000FFF794FE56204EE7032C7FF41FAF0721B3
:10523000002009F047FD542009F060FD6D2009F0C1
:105240005DFD612009F05AFD782009F057FD3A20F4
:1052500009F054FD9DED0F0A0120FFF777FE202194
:10526000002009F02FFD542009F048FD6D2009F0C1
:1052700045FD692009F042FD6E2009F03FFD3A200E
:1052800009F03CFD9DED110A0120FFF75FFEEDE600
:10529000E8480020F0480020D8480020A04800201E
:1052A000DC48002014500108145801080000C842CE
:1052B0000000D442E94800209C48002003F02CFF65
:1052C0004FF48061CD4803F02FFF012009F00EFD5F
:1052D0002B210F2009F0F6FC9DED0B0A0020FFF7B3
:1052E00035FE252009F00AFD002009F0FFFC022010
:1052F00009F0F2FC0021072009F0E4FC432009F04A
:10530000FDFC482009F0FAFC3A2009F0F7FC9DED7D
:10531000130A0220FFF71AFE562009F0EFFC2020A6
:1053200009F0ECFC432009F0E9FC4C2009F0E6FC14
:105330003A2009F0E3FC9DED120A0220FFF706FE79
:10534000562009F0DBFC3921072009F0BBFC49207D
:1053500009F0D4FC3A2009F0D1FC9DED0C0A0120A3
:10536000FFF7F4FD412009F0C9FC202009F0C6FC3C
:10537000562009F0C3FC632009F0C0FC682009F046
:10538000BDFC3A2009F0BAFC9DED180A012047E760
:1053900003F0C2FE022009F0A9FC012009F09CFCE8
:1053A0001A210E2009F08EFC502009F0A7FC4F2096
:1053B00009F0A4FC572009F0A1FC452009F09EFC4F
:1053C000522009F09BFC202009F098FC4F2009F0A6
:1053D00095FC462009F092FC462074E603F09CFE02
:1053E0004FF48061864803F09FFE012009F07EFCA7
:1053F000012009F071FC0021442009F063FC4520E4
:1054000009F07CFC522009F079FC522009F076FC6E
:105410004F2009F073FC522009F070FC202009F0A5
:105420006DFC9DF8593000EE103A0020B8EE400AAD
:105430002BE703F071FE4FF48061714803F074FEB6
:10544000012009F053FC012009F046FC0021442012
:1054500009F038FC452009F051FC522009F04EFCBF
:10546000522009F04BFC4F2009F048FC522009F073
:1054700045FC0F21442009F025FC502009F03EFC9A
:10548000522009F03BFC452009F038FC432009F08C
:1054900035FC482009F032FC412009F02FFC522055
:1054A00009F02CFC472009F029FC45200BE603F00D
:1054B00033FE012009F01AFC012009F00DFC002147
:1054C000084609F0FFFB452009F018FC782009F098
:1054D00015FC7420F7E503F01FFE4A484FF4806185
:1054E00003F022FEC2E503F017FE4FF4806143484B
:1054F00003F01AFE002009F0F9FB022009F0ECFB92
:105500000021232009F0DEFB422009F0F7FB4120B7
:1055100009F0F4FB4C2009F0F1FB412009F0EEFB0F
:105520004E2009F0EBFB432009F0E8FB492009F08D
:10553000E5FB4E2009F0E2FB472009F0DFFB0120EC
:1055400009F0D4FB2B210F2009F0BCFB9DED0B0AC9
:105550000020FFF7FBFC252009F0D0FB002009F01C
:10556000C5FB022009F0B8FB3921042009F0AAFB91
:10557000432009F0C3FB482009F0C0FB3A2009F0A2
:10558000BDFB9DED130A0320FFF7E0FC562009F058
:10559000B5FB202009F0B2FB1E2009F0AFFB3A203A
:1055A00009F0ACFB9DED170A032039E603F0B4FDCA
:1055B00015484FF4806193E703F0AEFD13484FF4B4
:1055C00080618DE72378002B3FF41DADDFF840901C
:1055D0004FF4FA714846FFF76FFB00283FF413AD14
:1055E00005F0B8FC3B78C9F8000001333B7000239C
:1055F0002370012388F8003005E500BF145401082A
:1056000014600108145C010814640108146801089E
:10561000EC480020084B13F830208A424FEAC002C1
:105620000BBF9B1803F830105A689B180CBF01324F
:1056300001225A60704700BF0000002030B5084BBF
:1056400013F830408C42074C02D12568954205D0B2
:1056500003F8301003EBC00322605A6030BD00BF76
:1056600000000020F848002008B507480521FFF792
:1056700033FB064B18B11A781AB100221A70187849
:1056800008BD0122FAE700BF08490020F1480020C8
:1056900008B507486421FFF70FFB064B18B11A78CD
:1056A0001AB100221A70187808BD0122FAE700BF6B
:1056B00004490020F648002038B5154D2B780446E3
:1056C0005BB1144C2046FFF7F7FA20B100232B7092
:1056D00005F040FC2060287838BD0E48FFF7ECFA52
:1056E0000028F8D00C4BE20003EBC40413446168BB
:1056F000142984BF142161605A681AB1013A5A60B2
:1057000001232B7005F026FC024B1860E3E700BF75
:10571000F5480020144900200000002038B5154D40
:105720002B7804465BB1144C2046FFF7C5FA20B134
:1057300000232B7005F00EFC2060287838BD0E4841
:10574000FFF7BAFA0028F8D00C4BE20003EBC404D0
:1057500013446168052984BF052161605A681AB144
:10576000013A5A6001232B7005F0F4FB024B1860DC
:10577000E3E700BFF44800201049002000000020AB
:1057800038B50C4C0C4D23785BB101462846FFF729
:1057900093FA20B10023237005F0DCFB2860207809
:1057A00038BD41432846FFF787FA0028F7D0012388
:1057B000F1E700BFF34800200C49002070B5164CFB
:1057C000267866B101461548FFF776FA28B1144AE3
:1057D00000232370137801331370207870BD114BB0
:1057E0000F4D03EBC20241435368287898420AD315
:1057F0000A4801EB8101FFF75FFA0028EDD0012391
:1058000023702E70E9E70548FFF756FA0028E4D028
:1058100001232370E1E700BFF24800200049002087
:10582000FC4800200000002038B51C4D002415F86D
:1058300034300A2B0BD8DFE803F0060E1014171CC7
:1058400022270E062B000021E0B205F0BBFA01343E
:10585000032CECD138BD0121F6E7FFF705FF014627
:10586000F2E7FFF715FFFAE732212046FFF724FFA2
:10587000F5E74FF4FA712046FFF750FFEFE70A21F2
:10588000C820FFF77DFFEAE704214FF47A70F8E7BC
:1058900022460121C820FFF791FFE0E70000002029
:1058A00008B505F06BFAFFF7BFFFBDE80840FFF74A
:1058B000EFB900007FB5002400F1006501230B4E15
:1058C000009405F5C8350393019456F8043BAB42A8
:1058D00009D2694601A8029306F00CFF80B218B9FC
:1058E0000134322CF1D1002004B070BDA036010883
:1058F00038B5134B78B1134D00F0010420F00100CE
:1059000028601C70104814B1046844EA0121016049
:105910000E49012008701B7803B972B10B4C207836
:10592000002548B1084B07491A6809682B46012031
:1059300006F06CFE257080B238BD1046FCE700BF53
:10594000184900201C49002020490020244900203B
:1059500070B500F100640D4604F5C8348E18B542E8
:1059600001D1002008E0204615F8011B0022FFF7B6
:10597000BFFF01340028F2D070BD0000B0B5002197
:105980001F4C0122084600AFFFF7B2FF236943F026
:1059900000732361052005F0E3FA236923F0007307
:1059A0002361052005F0DCFA236943F40033236109
:1059B000052005F0D5FA236923F40033236105207F
:1059C00005F0CEFA07F00EFB0E4B59680E4B4FF068
:1059D00000625A600022930003F1604303F56143C3
:1059E0000132D3F80002C3F88000082AF3D1054B36
:1059F0001B6883F30888BD46BDE8B040084700BF78
:105A0000001002400020030800ED00E0054A064BAC
:105A100011781970054B1B781370054A12681376BC
:105A2000704700BF39490020854900208749002080
:105A300094490020044B1870044B1870044B1870E4
:105A4000044B1B68187670478749002039490020AD
:105A50008549002094490020144B10B51860144C5F
:105A6000144B216000201A60FFF7E4FF05F072FA82
:105A7000114B186005F06EFA104B1860104B0322A2
:105A80001A70104B00221A70FFF74CF92368082196
:105A900093F8E50004F05CFA05F05CFA0A4B186034
:105AA00005F058FA094B186010BD00BF944900205A
:105AB0007C490020804900209C490020304900207A
:105AC000A4490020784900208C4900208849002002
:105AD00010B5044602F056FB144AB0B1144B1168DD
:105AE0001B68D1ED1F7A93ED087AB4EEE77AF1EEF8
:105AF00010FA05D593F89F1011B193F8A13023B98E
:105B000005F028FA0B4B186010BD13680948D3F84C
:105B10008010FFF7D1F80028F6D02046FFF78AFF63
:105B2000034B1B68012283F8AB20EDE77C49002082
:105B3000944900203049002008B502F06DFCBDE812
:105B40000840002002F044BB10B590B10A4C236815
:105B500093F8AE3063B109484FF47A71FFF7ACF8AF
:105B600030B1226892F8AE30013B82F8AE300020AE
:105B700010BD0120FCE700BF94490020A04900208F
:105B800010B5074C07482368D3F8C810FFF794F8FE
:105B900028B12368D3F8C800003818BF012010BD11
:105BA0007C4900208C490020054A064B1178197069
:105BB000054B1B781370054A12685376704700BF77
:105BC000384900208449002086490020944900205B
:105BD0002DE9F041B14BB24C1B788CB00B2B00F28D
:105BE0003F85DFE813F00C00C5007501D001E50228
:105BF000090345036403A903F503D404EE0402F08A
:105C0000C1FAA84EA84D002800F0A280336893F88E
:105C10000131002B40F09580012002212870FFF710
:105C2000F9FC05F097F9A14B18603368A048D3F848
:105C3000BC10FFF741F870B1236893F89E3043B968
:105C400002F0A0FA28B907232B7005F083F9994BCD
:105C50001860FFF7DBFE984F07F10C060FCE6D467C
:105C60000FC50FCE0FC596E8070085E8070097E837
:105C70000E000120FFF7B2F902F09CFA48B18F4BF9
:105C80000120187000F006FD874B02221A7003F005
:105C90004FF902F07BFA30B32368012283F8AB207E
:105CA000804B1B6893F8EE00003818BF0120FFF707
:105CB0004BFFC0B1824B804F17221A707A4B0522DE
:105CC00007F10C061A700FCE6D460FC50FCE0FC52B
:105CD00096E8070085E80700042097E80E00FFF724
:105CE0007DF9FFF761FF236893F8503C13F0FB0F39
:105CF0000CD1744A1178994208D07049097829B9B1
:105D00001370694B07221A70FFF780FE236893F81F
:105D1000501C02290BD16B4A1078022807D0117051
:105D20000D225A76604B07221A70FFF76FFE02F0C1
:105D3000A9FA236883F8AC000CB0BDE8F041FFF786
:105D400025B80223012108462B70FFF763FC6CE79E
:105D500002F092FA0028F4D12B78002B7FF465AF83
:105D6000336893F8F830012B0CBF02230623E9E7D0
:105D7000236893F8A73013B14B4B09221A70494D91
:105D80002B6893F83731002B40F083800520FFF714
:105D90009FFE012000F0F2FD2368D3ED087AB6EEF5
:105DA000007AF4EEC77AF1EE10FA07DA2B6893ED79
:105DB0001F7AF4EEC77AF1EE10FA6CDB012000F0E6
:105DC000EDFD23689FED406AD3ED077AD3ED0B6AB2
:105DD00037EEE67A67EE867AB4EEE77AF1EE10FAFD
:105DE0001BD52B681A7893ED036A07EE102AB8EEDC
:105DF000C77AF2EE047AE7EE067AF4EEE76AF1EE9D
:105E000010FA0AD5012000F077FD2B6893F8E830EE
:105E1000022B02D1012000F055FD236893F8A30066
:105E200000B1012000F0CAFDFFF7F0FD274B224F23
:105E30001B681B683B602368D3ED087AF0EEE77AB5
:105E4000C7ED017AD3ED0C7AF0EEE77AC7ED0D7A63
:105E5000D3ED107AF0EEE77AC7ED0C7AD3ED0E7A37
:105E600007F10C06F0EEE77AC7ED077AD3ED0D7A6D
:105E70000FCEF0EEE77A6D46C7ED087A0FC50FCE6C
:105E80000FC596E8070085E80700032097E80E0095
:105E9000F0E600207BE7002091E700BF39490020B1
:105EA000944900207C490020874900203049002087
:105EB0009C490020284900203C49002078490020C6
:105EC00086490020A4490020CDCCCC3D804900204B
:105ED000AD4B1B78022B09D005F03CF8AB4B18609A
:105EE000002000F009FD002000F048FD2368A84DC7
:105EF00093F89E3013B9A74B187840B3012000F0F7
:105F0000E1FC23682A68D3ED077A92ED217A67EEE7
:105F1000877A93ED0B7AB4EEE77AF1EE10FA05DDAD
:105F20009C4993F89E3009781BBB19BBD2F88810A6
:105F30009648FEF7C1FE00B32B6893F8E830FBB13A
:105F4000954B08221A70236814225A7615E000F047
:105F5000B9FC04F0FFFF8D4B18602B6893F83630C6
:105F6000002BCED023680A215A7E0220FFF766FB61
:105F7000C7E729B1884B0B221A70FFF747FD7BE674
:105F8000854B0322F8E7012000F0B6FC804D064661
:105F9000002800F0E7802B6893F8E830022B02D04D
:105FA000002000F08FFC02F0EDF80646002800F01B
:105FB000E2802B6893F8E900003818BF012000F058
:105FC000DDFC2368D3ED087AB6EE007AF4EEC77AEA
:105FD000F1EE10FA07DA2B6893ED1F7AF4EEC77A28
:105FE000F1EE10FA02DB012000F0D8FC02200021C3
:105FF000FFF710FB236893F8A30000B1012000F025
:10600000DDFC02F0BFF858B12B6893F8E9603EB9A7
:10601000614B30461E7000F06FFC304600F0AEFC65
:10602000236893F89E6086B9304600F065FC3046E0
:1060300000F0A4FC236815225A762B6893F83630BA
:106040001BB10A210220FFF7F9FA236893ED087AC1
:106050002B68D3ED317AB0EEC77AF0EEE77AB4EE82
:10606000E77AF1EE10FAC0F28A804C484FF47A7168
:10607000FEF722FE18B104F06DFF494B1860FFF7E0
:106080007FFD30B1444B05221A702368012283F84A
:10609000AB20236893F8A720C2B193F8A170414EBA
:1060A0008FB92A6893ED107AD2ED1E7AB4EEE77AB2
:1060B000F1EE10FA07D5516F3046FEF7FDFD28B11D
:1060C000384602F0B7F904F045FF3060FFF79EFC58
:1060D000354B364F1B681B683B602368D3ED087A4D
:1060E000F0EEE77AC7ED017AD3ED077AF0EEE77AC2
:1060F000C7ED027AD3ED207AF0EEE77AC7ED047AA5
:10610000D3ED227AF0EEE77AC7ED057AD3ED217A66
:10611000F0EEE77AC7ED067AD3ED267AF0EEE77A6D
:10612000C7ED0A7AD3ED0E7AF0EEE77AC7ED077A7B
:10613000D3ED0D7A2B6807F10C0693F8C03087F881
:106140002C300FCEF0EEE77A6D46C7ED087A0FC51A
:106150000FCE0FC596E8070085E80700022097E8F4
:106160000E0087E50C4B02221A70236815225A761E
:1061700000F0C2FB304600F001FC304634E704F08A
:10618000E9FE064B7AE700BF8549002098490020C8
:106190007C49002078490020874900208849002058
:1061A0008C4900202C490020804900203C490020D7
:1061B000804F07F10C060FCE6D460FC50FCE0FC5F1
:1061C00096E8070085E80700082097E80E00FEF72C
:1061D00005FF794B79481B68D3F8B010FEF76CFDCA
:1061E00000283FF4CAAE764B05221A7023680122BC
:1061F00083F8AB200222A8E6724B1B78052B03D054
:1062000004F0A8FE704B186000F04AFA002101204B
:10621000FFF700FADFF8A08100210846FFF7FAF93E
:10622000D8F8003093F8371011B90220FFF7F2F9CF
:10623000604F07F10C06FFF7E9FB0FCE6D460FC567
:106240000FCE0FC596E8070085E80700042097E801
:106250000E00FEF7C3FED8F800305B48D3F8FC1000
:10626000FEF72AFD00283FF407ADFFF765FC03E5C4
:10627000544B1B78062B08D0002000F023FB002095
:1062800000F03AFB002000F079FB4A4F07F10C06C2
:10629000FFF752FC0FCE6D460FC50FCE0FC596E827
:1062A000070085E80700072097E80E00E2E4454B69
:1062B0001B78072B03D004F04DFE444B18603E4D75
:1062C00042482B68D3F8B410FEF7F6FC30B13C4BD3
:1062D00005221A702368012283F8AB2023680A2163
:1062E0005A7E0020FFF7AAF923680A215A7E01206E
:1062F000FFF7A4F92B6893F836302BB123680A21F5
:106300005A7E0220FFF79AF900F0CAF9294FFFF7E9
:106310007DFB236807F10C065B7E87F82D300FCEDE
:106320006D460FC50FCE0FC596E8070085E807003C
:10633000052097E80E009DE4224B1B78082B03D024
:1063400004F008FE214B18601B4D20482B68D3F841
:10635000B810FEF7B1FC30B1194B05221A70236852
:10636000012283F8AB2003210020FFF753F903211A
:106370000120FFF74FF92B6893F836302BB12368D3
:106380000A215A7E0220FFF759F90A4F07F10C063D
:1063900000F086F9FFF73AFB0FCE6D460FC50FCE22
:1063A0000FC596E8070085E80700062097E80E006D
:1063B00060E400BF3C4900207C49002028490020BF
:1063C0008749002085490020904900207449002019
:1063D000A64D22682B6892ED087AD3ED1F7AB4EEB1
:1063E000E77AF1EE10FA40F1B68092F8A120002A87
:1063F00000F0B180196F9E48FEF75EFC28B10A20BC
:10640000FFF718FB002002F015F8226892F8A1604F
:10641000002E40F0A5802B6892ED107AD3ED1E7A05
:10642000B4EEE77AF1EE10FA40F19A80596F914894
:10643000FEF742FC28B10A20FFF7FCFA304601F0D3
:10644000F9FF2B6893F83731002B40F08E80052040
:10645000FFF73EFB236893F8A160002E00F08780D1
:10646000012000F08BFA2368D3ED087AB6EE007AAB
:10647000F4EEC77AF1EE10FA07DA2B6893ED1F7A83
:10648000F4EEC77AF1EE10FA02DB012000F086FA92
:1064900023689FED796AD3ED077AD3ED0B6A37EE67
:1064A000E67A67EE867AB4EEE77AF1EE10FA1BD55B
:1064B0002B681A7893ED036A07EE102AB8EEC77AB4
:1064C000F2EE047AE7EE067AF4EEE76AF1EE10FAFD
:1064D0000AD5012000F010FA2B6893F8E830022B5F
:1064E00002D1012000F0EEF9236893F8A30000B177
:1064F000012000F063FAFFF789FA604B604F1B68D8
:106500001B683B602368D3ED107AF0EEE77AC7EDA5
:106510000C7AD3ED0E7A07F10C06F0EEE77AC7EDB0
:10652000077AD3ED0D7A0FCEF0EEE77A6D46C7ED20
:10653000087A0FC50FCE0FC596E8070085E807005B
:10654000092097E80E00FEF749FD06210120FFF71C
:1065500061F8FFF791BB04F0FDFC454B186054E770
:1065600004F0F8FC434B18606BE7002070E73046FE
:1065700000F014FA304600F001FA304600F0BCF9A1
:10658000304600F09FF9236816225A76ACE73C4F5C
:106590000520FFF79DFA07F10C0607210120FFF700
:1065A00039F8FFF733FA0FCE6D460FC50FCE0FC582
:1065B00096E8070085E807000A2097E80E00FFF735
:1065C00059BB012000F098F900283FD0002000F0CE
:1065D00079F9236893ED087A244B1B68D3ED317A5F
:1065E000B0EEC77AF0EEE77AB4EEE77AF1EE10FAA1
:1065F00032DB24484FF47A71FEF75EFB18B104F0E9
:10660000A9FC214B1860FFF7BBFA48B11F4B1822B9
:106610001A701F4B05221A702368012283F8AB20E1
:10662000174F07F10C060FCE6D460FC50FCE0FC5E5
:1066300096E8070085E807000B2097E80E00FEF7B4
:10664000CDFC07210120FEF7E5FF96E4104B022266
:106650001A7000F051F9BCE704F07CFC094BD1E75B
:106660000720FFF7E7F9FFF707BB00BF7C490020D1
:10667000344900202C490020CDCCCC3D804900205D
:106680003C490020884900208C4900208649002090
:1066900087490020014B1870704700BFBA4900209D
:1066A0000B4B1B6893F89C1093F89D200A4393F8BA
:1066B0009F100A430AD00022A3F89C2083F89F2051
:1066C00083F8A02083F8A22004F048BB704700BFE5
:1066D000F04900201C4B1D4A1B689FED1D7A9A63F0
:1066E0001C4A83ED0D7A11680A78C978002012FBE4
:1066F00001F2C1B29142D3ED0D6A93ED0E6A0CDB4B
:1067000007EE902AF8EEE77A76EEC66AC7EE275AC9
:10671000C3ED106AC3ED0F5A704703EBC101D1ED11
:106720002C7AF4EEE67AF1EE10FAF4EEC67AC8BFEF
:10673000C3ED0D7AF1EE10FA37EE277A48BFC3EDBC
:106740000E7A0130D5E700BFF0490020000020415B
:1067500000000000E8490020234B2DE9F0471C68A9
:1067600004F5915028220021043008F013FF1F4B3C
:1067700018680578C778002615FB07FC4FF0010E56
:10678000F1B2614501DBBDE8F087B1FBF5F3DAB2A8
:1067900005FB131390F8029090F8F080B8FBF7F81F
:1067A000DBB2B3FBF9F308FB0233DBB202FB1512D9
:1067B00004EBC10104EB830303F5805392FBF9FA68
:1067C00091F8B510D3F8248209FB1A22D2B20EFA3E
:1067D00002F229B142EA0802C3F824220136CFE7C7
:1067E00028EA0202F8E700BFF0490020E84900204B
:1067F0000A4B0B4A1B68126893ED087AD2ED237A94
:10680000B4EEE77AF1EE10FA07DD022283F8502C9D
:10681000002283F89E2083F8A1207047F0490020D1
:10682000E849002010B5254C236893F89C20BAB3A2
:1068300093F89E3013B9224B1B788BB301210220B1
:1068400004F05AFA0121042004F056FA236893F860
:106850009D205AB393F89E3013B9194B1B782BB374
:106860000121032004F048FA0121042004F044FA35
:10687000236893F89F20E2B193F8A130CBB10121B6
:10688000012004F039FA236893F8A2209AB193F812
:10689000A33083B10121BDE81040002004F02CBAE0
:1068A0000021022004F028FA0021CCE70021032077
:1068B000DCE70021E4E70021EDE700BFF04900201C
:1068C000BA490020094B1A7882420ED0084A187043
:1068D0001268084B92F8E8201B681AB183F89C00F4
:1068E000FFF7A0BF83F89C20FAE77047044A002016
:1068F000E8490020F04900201B4A38B513781B4DA9
:106900001B4C83420DD02968107091F8E720236852
:10691000012A16BF002283F89D0083F89D20FFF70F
:1069200081FF22682B6892ED077AD3ED217A114D11
:1069300067EE877A92ED0B7AB4EEE77AF1EE10FA11
:106940000CD593F8E8304BB104F004FB0A4B186007
:10695000287838B9236883F89E0038BD00232B704F
:106960000120FAE70020F8E7B2490020E8490020BA
:10697000F0490020E4490020E0490020054B1A7846
:10698000824206D01870044B1B6883F89F00FFF703
:1069900049BF7047A8490020F0490020054B1A78EC
:1069A000824206D01870044B1B6883F8A000FFF7E2
:1069B00039BF7047A9490020F0490020054B1A78DB
:1069C000824206D01870044B1B6883F8A200FFF7C0
:1069D00029BF7047AA490020F049002038B5924CE1
:1069E000924DFFF777FE236893F8501C002211F0B8
:1069F000FB0F5A7600F0C180296893ED0E7AD1ED35
:106A0000047AB4EEE77AF1EE10FA08D883F89E2003
:106A100004F0A0FA864B186023680A225A7623688D
:106A20002A6893ED217AD2ED257AB4EEE77AF1EE79
:106A300010FA09D8002283F89E2004F08BFA7C4BD0
:106A40001860236811225A7623682A6893ED0D7A1C
:106A5000D2ED057AB4EEE77AF1EE10FA09DB002206
:106A600083F8A12004F076FA724B1860236809229B
:106A70005A7623682A6893ED217AD2ED277AB4EE0C
:106A8000E77AF1EE10FA09D8002283F8A12004F089
:106A900061FA684B1860236813225A762B682268C3
:106AA00093ED197AD3ED047A77EE877A92ED0E7A28
:106AB000B4EEE77AF1EE10FA1CDB93ED247AD2ED16
:106AC000207AB4EEE77AF1EE10FA13DB92ED217A38
:106AD000D3ED257AB4EEE77AF1EE10FA0ADB196EFF
:106AE0005348FEF7E9F828B12368012283F89E2075
:106AF00000225A762B68226893ED1B7AD3ED057A33
:106B000077EEC77A92ED0D7AB4EEE77AF1EE10FAED
:106B10001CD893ED267AD2ED207AB4EEE77AF1EE26
:106B200010FA13DB92ED217AD3ED277AB4EEE77AEF
:106B3000F1EE10FA0ADB996E3E48FEF7BDF828B177
:106B40002368012283F8A12000225A7623682A684C
:106B500093ED207AD2ED287AB4EEE77AF1EE10FACE
:106B60005CD893ED217AD2ED297AB4EEE77AF1EE92
:106B700010FA53DB002283F8A3202F4923680878FA
:106B80002A682E49F8B992ED037AD3ED0D7AF4EE26
:106B9000C77AF1EE10FA16DCD3ED0E6AD2ED027A66
:106BA000F4EEE76AF1EE10FA0DD4147807EE904A8D
:106BB000F8EEE77A67EE877A93ED077AB4EEE77A34
:106BC000F1EE10FA2CDD92F8C120087882423EBF27
:106BD000002283F8502C0B2200F1010438BF5A76B2
:106BE00000220C7083F89E2083F8A120144893F8AB
:106BF000A120017893F89E309142124902D10C787D
:106C00009C420FD0003A18BF0122003B18BF01235D
:106C10000B70BDE838400270FFF704BE0122AAE7FE
:106C20000870E3E738BD00BFF0490020E8490020C4
:106C3000E0490020DC490020034A0020014A0020EE
:106C4000B8490020B9490020714B1868D0F8DCC061
:106C50002DE9F047BCF1000F5DD1D0F8E030002BFA
:106C600059D1DFED6C7AB0EE677AD0F8D850002DAC
:106C700056D1DFED686AB0EE666A674B1A68012389
:106C800002F5CA6702F14C013C461E4606FA03FEB5
:106C90001EEA050F1CBFD4F800E0C1F800E0013384
:106CA000102B04F1080401F10401EFD10023DFED02
:106CB000594A02F148041946012606FA03FE1EEA63
:106CC000050F13D0D4ED005AF4EE465AF1EE10FA47
:106CD000F4EE665AC8BFB0EE656A0131F1EE10FA03
:106CE00074EEA54A48BFF0EE656AC9B20133102BB5
:106CF00004F10404E1D1002590F8F080DFED455A5D
:106D00002B464FF00109ECB2A0452FD990F8E4E0F2
:106D10003E46002424E0DFED417A9FED417AA4E76E
:106D2000DFED3E6A9FED3E6AA7E709FA04FA1AEA28
:106D30000C0F13D096ED005AB4EE475AF1EE10FA4C
:106D4000B4EE675AC8BFB0EE457A0133F1EE10FADF
:106D500075EE855A48BFF0EE457ADBB2013408364D
:106D60005FFA84FAD645E0D80135CCE790F8E580A3
:106D700000264FF00109F4B2A04527D990F8E6E0CB
:106D800002F5216500241CE0D0F8E07009FA04FC4B
:106D90001CEA070F13D095ED005AB4EE475AF1EEF6
:106DA00010FAB4EE675AC8BFB0EE457A0133F1EE7F
:106DB00010FA75EE855A48BFF0EE457ADBB2013421
:106DC0000835E7B27745DFD30136D4E782ED207A84
:106DD000C2ED217AB3B107EE903AF8EEE77A85EE8C
:106DE000A77A82ED227A82ED236AC2ED246A61B12C
:106DF00007EE901AF8EEE77A84EEA77A82ED257A0C
:106E0000BDE8F0879FED037AEBE79FED027AF5E7A7
:106E1000E849002000000000F04900200000C842BE
:106E20000000C8C2B4EE600AF1EE10FA48BFB0EE3E
:106E3000600AB4EE410AF1EE10FAC8BFB0EE410AA2
:106E400030EE600A32EE612A31EE601A20EE020A5C
:106E5000C0EE017A37EEA10A704782B00F238DF899
:106E6000063003238DF804308DF8053007238DF8A4
:106E70000730019A0221402002B002F08FBF0000CB
:106E8000F8B5634B1E78634B1A68D2F8D830092ED8
:106E900094BF002601262BB35F4B60491868D1EDE3
:106EA000006A92ED2A7AD0ED237A36EE877AF4EEF4
:106EB000C77AD2ED2B7A90ED247A77EEE67AF1EE6E
:106EC00010FAB4EEE77ACCBF01230023F1EE10FAFA
:106ED00048BF43F001031E4314BF4FF040434FF03F
:106EE00080430B60D2E9373423437CD04A484C4975
:106EF0000768D1ED006A92ED247AD7ED207A36EE5C
:106F0000877AF4EEC77AD2ED257A97ED217A77EE7B
:106F1000E67AF1EE10FAB4EEE77ACCBF0123002353
:106F2000F1EE10FA54BF1D4643F00105002D54D078
:106F30004FF040430B600CB33A4B0168D3ED006A4D
:106F400092ED267AD1ED207A36EE877AF4EEC77A82
:106F5000D2ED277A91ED217A77EEE67AF1EE10FA0A
:106F6000B4EEE77ACCBF01240024F1EE10FA48BF5A
:106F700044F00104A4B34FF040421A602A4F3A781B
:106F8000A6BB85F001039A4234D028484FF47A71A9
:106F9000FDF792FE48B15EBB85F001031E4A126800
:106FA00082F8A93003F001033B70214D2A7836BBEB
:106FB00084F001039A4226D01E484FF47A71FDF7FF
:106FC0007BFE48B1EEB984F00104134B1B6883F8D3
:106FD000AA4004F001042C70F8BD4FF08043A9E7EB
:106FE0004FF08042C9E71D461C46C7E70023CAE7A9
:106FF0000023D3E703F0AEFF0C4B1860D5E7002366
:10700000D8E70024E1E703F0A5FF0A4B1860E3E7A7
:10701000024A0020E8490020F04900201C0000201E
:10702000240000202000002029000020F849002032
:1070300028000020F44900200A4B1B6893F8ED203B
:107040006AB1094A126892F8A40048B192F8A820DF
:1070500093F8EB30134314BF012000207047012048
:10706000704700BFE8490020F049002008B503F050
:1070700071FF014B186008BDBC49002030B54FF0CE
:10708000013391B0CDE90833184D40F20113ADF84A
:10709000283001238DF82B302B689A788DF82C201E
:1070A0009A680E92DA680F9293F8EF2007920C21FB
:1070B0001222CDE90521002493F8F03004930C94BA
:1070C0008DF8344010AB13E90F008DE80F0008ABCA
:1070D0000FCB02F039FD2146052003F00DFE2B6891
:1070E00093F8EF20024B1A7011B030BDE849002030
:1070F000C8490020F0B5234B1D68234B95F8F0706C
